:100000000C9492000C94BA000C94BA000C94570310
:100010000C94BA000C94BA000C94BA000C94BA0078
:100020000C94BA000C94BA000C94BA000C94BA0068
:100030000C94BA000C94BA000C94BA000C94BA0058
:100040000C94B5020C9468030C9425030C94FF02E5
:100050000C94BA000C94BA000C94BA000C94BA0038
:100060000C94BA000C94BA00000000002400270091
:100070002A002C20726573756C7420626974733D5C
:10008000002C2073616D706C65733D004F76657256
:1000900073616D706C696E673A204E3D003D3D3D69
:1000A000204E616E6F205350492041444320536CD1
:1000B000617665203D3D3D00202063686B3D3078D2
:1000C00000202041333D00202041323D00202041CE
:1000D000313D00504B54202041303D0000000000D5
:1000E000250028002B000404040404040404020274
:1000F00002020202030303030303010204081020A7
:1001000040800102040810200102040810200000B1
:1001100000080002010000030407000000000000C6
:100120000000E80411241FBECFEFD8E0DEBFCDBF32
:1001300011E0A0E0B1E0EEE7FAE002C005900D9218
:10014000A831B107D9F721E0A8E1B1E001C01D92C3
:10015000A93CB207E1F710E0C2E9D0E004C0219762
:10016000FE010E943705C139D107C9F70E948903F2
:100170000C943D050C940000E2E1F1E02491EEEFD7
:10018000F0E09491EAEEF0E0E491EE23C9F022234E
:1001900039F0233001F1A8F4213019F1223029F18E
:1001A000F0E0EE0FFF1FE452FF4FA591B4912FB77F
:1001B000F894EC91811126C090959E239C932FBFBB
:1001C00008952730A9F02830C9F0243049F720914C
:1001D00080002F7D03C0209180002F772093800026
:1001E000DFCF24B52F7724BDDBCF24B52F7DFBCF08
:1001F0002091B0002F772093B000D2CF2091B00093
:100200002F7DF9CF9E2BDACFAF92BF92CF92DF92A4
:10021000EF92FF920F931F93CF93DF936C017B01BB
:100220008B01040F151FEB015E01AE18BF08C0174C
:10023000D10759F06991D601ED91FC910190F081BF
:10024000E02DC6010995892B79F7C501DF91CF9182
:100250001F910F91FF90EF90DF90CF90BF90AF90E4
:100260000895FC01538D448D252F30E0842F90E0BC
:10027000821B930B541710F0CF96089501970895A1
:10028000FC01918D828D981761F0A28DAE0FBF2F6A
:10029000B11D5D968C91928D9F5F9F73928F90E0C0
:1002A00008958FEF9FEF0895FC01918D828D98172F
:1002B00031F0828DE80FF11D858D90E008958FEF6C
:1002C0009FEF0895FC01918D228D892F90E0805C35
:1002D0009F4F821B91098F73992708958CE291E0BB
:1002E0000E94620121E0892B09F420E0822F089509
:1002F00080E090E0892B29F00E946E0181110C941E
:1003000000000895FC01A48DA80FB92FB11DA35AB8
:10031000BF4F2C91848D90E001968F739927848F25
:10032000A689B7892C93A089B1898C918370806448
:100330008C93938D848D981306C00288F389E02DE9
:1003400080818F7D80830895EF92FF920F931F939A
:10035000CF93DF93EC0181E0888F9B8D8C8D981378
:100360001AC0E889F989808185FF15C09FB7F89484
:10037000EE89FF896083E889F989808183708064D0
:1003800080839FBF81E090E0DF91CF911F910F911B
:10039000FF90EF900895F62E0B8D10E00F5F1F4F2A
:1003A0000F731127E02E8C8D8E110CC00FB607FC39
:1003B000FACFE889F989808185FFF5CFCE010E94C7
:1003C0008201F1CFEB8DEC0FFD2FF11DE35AFF4FB2
:1003D000F0829FB7F8940B8FEA89FB898081806255
:1003E000CFCF0F931F93CF93DF938C01D0E0C0E06A
:1003F000F801EC0FFD1F6491662341F08CE291E05F
:100400000E94A401892B11F02196F2CFCE01DF9139
:10041000CF911F910F910895CF93DF93EC01888DB9
:100420008823B9F0AA89BB89E889F9898C9185FD6F
:1004300003C0808186FD0DC00FB607FCF7CF8C91FD
:1004400085FFF2CF808185FFEDCFCE010E94820132
:10045000E9CFDF91CF9108950F931F9390E440E08F
:1004600050E0BA018E5020910001E0E42E9F9001EF
:100470001124282B20937C0020917A002064209363
:100480007A0020917A0026FDFCCF0091780010912F
:100490007900012E000C220B330B400F511F621FFD
:1004A000731F915001F7DB01CA0123E0B695A795B0
:1004B000979587952A95D1F71F910F9108958F925F
:1004C0009F92AF92BF920F931F93CF93DF93CDB7BD
:1004D000DEB7A1970FB6F894DEBF0FBECDBF19A24D
:1004E000423008F44AE08E010F5D1F4F842E912C9C
:1004F000B12CA12CA50194010E941505E62FB9018C
:10050000CA01EA3044F5E05DD801EE938D01232B5A
:10051000242B252B79F790E080E0109769F0FD01FE
:1005200001900020E9F73197AF014A1B5B0BBD0139
:100530008CE291E00E940401A1960FB6F894DEBF10
:100540000FBECDBFDF91CF911F910F91BF90AF90A4
:100550009F908F900895E95CD7CF42E050E064E12E
:1005600071E08CE291E00C9404011F920F920FB69F
:100570000F9211242F933F938F939F93AF93BF9329
:100580008091280190912901A0912A01B0912B011D
:100590003091270123E0230F2D3758F50196A11D37
:1005A000B11D209327018093280190932901A093E6
:1005B0002A01B0932B018091230190912401A091F5
:1005C0002501B09126010196A11DB11D8093230143
:1005D00090932401A0932501B0932601BF91AF9180
:1005E0009F918F913F912F910F900FBE0F901F9071
:1005F000189526E8230F0296A11DB11DD2CF1F9298
:100600000F920FB60F9211242F933F934F935F9346
:100610006F937F938F939F93AF93BF93EF93FF93CA
:100620008CE291E00E948201FF91EF91BF91AF9126
:100630009F918F917F916F915F914F913F912F91FA
:100640000F900FBE0F901F9018951F920F920FB62C
:100650000F9211242F938F939F93EF93FF93E09129
:100660003C01F0913D018081E0914201F091430114
:1006700082FD1BC09081809145018F5F8F73209117
:100680004601821741F0E0914501F0E0E45DFE4F44
:10069000958F80934501FF91EF919F918F912F91BD
:1006A0000F900FBE0F901F9018958081F4CF1F926E
:1006B0000F920FB60F9211248F931A9B03C081E003
:1006C000809318018F910F900FBE0F901F90189577
:1006D0001F920F920FB60F9211248F93EF93FF93F7
:1006E000809101018A3098F4E091010181E08E0F40
:1006F00080930101F0E0E75EFE4F80818EBDFF91A7
:10070000EF918F910F900FBE0F901F90189580E082
:10071000F5CF789484B5826084BD84B5816084BD52
:1007200085B5826085BD85B5816085BD80916E008F
:10073000816080936E0010928100809181008260C0
:1007400080938100809181008160809381008091FD
:1007500080008160809380008091B10084608093EC
:10076000B1008091B00081608093B00080917A00E8
:10077000846080937A0080917A00826080937A000E
:1007800080917A00816080937A0080917A008068FD
:1007900080937A001092C100E0913C01F0913D01FC
:1007A00082E08083E0913801F09139011082E0917C
:1007B0003A01F0913B018FEC808310924401E0916B
:1007C0004001F091410186E08083E0913E01F0918B
:1007D0003F01808180618083E0913E01F0913F0183
:1007E000808188608083E0913E01F0913F018081AB
:1007F00080688083E0913E01F0913F0180818F7D90
:1008000080838DE990E00E94F1010E94AD028CE8A6
:1008100090E00E94F1014AE063E070E080E090E047
:100820000E945F0281E890E00E94F1014AE060E4EA
:1008300070E080E090E00E945F0282E790E00E941A
:10084000F1014AE06DE070E080E090E00E945F021C
:100850000E94AD02EEEFF0E02491EAEEF0E0849128
:10086000882399F090E0880F991FFC01E859FF4F09
:10087000A591B491FC01E452FF4F859194918FB7FB
:10088000F894EC91E22BEC938FBF81E00E94BC00C6
:1008900081E080930001249A84B1837D84B92A9AEF
:1008A0008CEC8CBD809168008160809368008091A1
:1008B0006B00846080936B0078948AEA782E02E261
:1008C00011E06624639490E0E92E90E0F92E8EE02A
:1008D0000E942C025C018FE00E942C026C0180E1DE
:1008E0000E942C02EC0181E10E942C024C017092CA
:1008F0001901A0921A01B0921B01C0921C01D09262
:100900001D01C0931E01D0931F018092200190927F
:100910002101E9E1F1E080E0919189270E171F079D
:10092000D9F780932201F894609201018091190116
:100930008EBD10921801789480E00E94BC0083ED77
:1009400090E00E94F101B50190E080E04AE00E9451
:100950005F028DEC90E00E94F101B60190E080E032
:100960004AE00E945F0287EC90E00E94F101BE0124
:1009700090E080E04AE00E945F0281EC90E00E94FB
:10098000F101B40190E080E04AE00E945F0288EB50
:1009900090E00E94F1016091220170E090E080E01F
:1009A00040E10E945F020E94AD02809118018823FD
:1009B000E1F381E00E94BC00E114F10409F487CF67
:1009C0000E946E01882309F482CF0E9400007FCF2D
:1009D000ECE2F1E01382128288EE93E0A0E0B0E056
:1009E00084839583A683B78386E091E09183808397
:1009F00085EC90E09587848784EC90E097878687E4
:100A000080EC90E0918B808B81EC90E0938B828BDB
:100A100082EC90E0958B848B86EC90E0978B868BB4
:100A2000118E128E138E148E0895A1E21A2EAA1B17
:100A3000BB1BFD010DC0AA1FBB1FEE1FFF1FA2178E
:100A4000B307E407F50720F0A21BB30BE40BF50B8B
:100A5000661F771F881F991F1A9469F76095709514
:100A6000809590959B01AC01BD01CF010895EE0FDB
:0E0A7000FF1F0590F491E02D0994F894FFCF3C
:100A7E00010100000000A401040131010C02620119
:080A8E00400154010D0A0000B3
:00000001FF
